{
  "_format": "hh-sol-artifact-1",
  "contractName": "DegenToken",
  "sourceName": "contracts/DegenToken.sol",
  "abi": [
    {
      "inputs": [],
      "stateMutability": "nonpayable",
      "type": "constructor"
    },
    {
      "anonymous": false,
      "inputs": [
        {
          "indexed": true,
          "internalType": "address",
          "name": "owner",
          "type": "address"
        },
        {
          "indexed": true,
          "internalType": "address",
          "name": "spender",
          "type": "address"
        },
        {
          "indexed": false,
          "internalType": "uint256",
          "name": "value",
          "type": "uint256"
        }
      ],
      "name": "Approval",
      "type": "event"
    },
    {
      "anonymous": false,
      "inputs": [
        {
          "indexed": true,
          "internalType": "address",
          "name": "previousOwner",
          "type": "address"
        },
        {
          "indexed": true,
          "internalType": "address",
          "name": "newOwner",
          "type": "address"
        }
      ],
      "name": "OwnershipTransferred",
      "type": "event"
    },
    {
      "anonymous": false,
      "inputs": [
        {
          "indexed": true,
          "internalType": "address",
          "name": "from",
          "type": "address"
        },
        {
          "indexed": true,
          "internalType": "address",
          "name": "to",
          "type": "address"
        },
        {
          "indexed": false,
          "internalType": "uint256",
          "name": "value",
          "type": "uint256"
        }
      ],
      "name": "Transfer",
      "type": "event"
    },
    {
      "anonymous": false,
      "inputs": [
        {
          "indexed": true,
          "internalType": "address",
          "name": "from",
          "type": "address"
        },
        {
          "indexed": true,
          "internalType": "address",
          "name": "to",
          "type": "address"
        },
        {
          "indexed": false,
          "internalType": "string",
          "name": "NftName",
          "type": "string"
        }
      ],
      "name": "successfulTransfer",
      "type": "event"
    },
    {
      "inputs": [
        {
          "internalType": "uint256",
          "name": "",
          "type": "uint256"
        }
      ],
      "name": "NftList",
      "outputs": [
        {
          "internalType": "uint256",
          "name": "ID",
          "type": "uint256"
        },
        {
          "internalType": "string",
          "name": "NftName",
          "type": "string"
        },
        {
          "internalType": "uint256",
          "name": "Price",
          "type": "uint256"
        }
      ],
      "stateMutability": "view",
      "type": "function"
    },
    {
      "inputs": [
        {
          "internalType": "string",
          "name": "_NftName",
          "type": "string"
        },
        {
          "internalType": "uint256",
          "name": "_Price",
          "type": "uint256"
        }
      ],
      "name": "addNft",
      "outputs": [],
      "stateMutability": "nonpayable",
      "type": "function"
    },
    {
      "inputs": [
        {
          "internalType": "address",
          "name": "owner",
          "type": "address"
        },
        {
          "internalType": "address",
          "name": "spender",
          "type": "address"
        }
      ],
      "name": "allowance",
      "outputs": [
        {
          "internalType": "uint256",
          "name": "",
          "type": "uint256"
        }
      ],
      "stateMutability": "view",
      "type": "function"
    },
    {
      "inputs": [
        {
          "internalType": "address",
          "name": "spender",
          "type": "address"
        },
        {
          "internalType": "uint256",
          "name": "amount",
          "type": "uint256"
        }
      ],
      "name": "approve",
      "outputs": [
        {
          "internalType": "bool",
          "name": "",
          "type": "bool"
        }
      ],
      "stateMutability": "nonpayable",
      "type": "function"
    },
    {
      "inputs": [
        {
          "internalType": "address",
          "name": "account",
          "type": "address"
        }
      ],
      "name": "balanceOf",
      "outputs": [
        {
          "internalType": "uint256",
          "name": "",
          "type": "uint256"
        }
      ],
      "stateMutability": "view",
      "type": "function"
    },
    {
      "inputs": [
        {
          "internalType": "uint256",
          "name": "amount",
          "type": "uint256"
        }
      ],
      "name": "burn",
      "outputs": [],
      "stateMutability": "nonpayable",
      "type": "function"
    },
    {
      "inputs": [
        {
          "internalType": "address",
          "name": "account",
          "type": "address"
        },
        {
          "internalType": "uint256",
          "name": "amount",
          "type": "uint256"
        }
      ],
      "name": "burnFrom",
      "outputs": [],
      "stateMutability": "nonpayable",
      "type": "function"
    },
    {
      "inputs": [],
      "name": "decimals",
      "outputs": [
        {
          "internalType": "uint8",
          "name": "",
          "type": "uint8"
        }
      ],
      "stateMutability": "view",
      "type": "function"
    },
    {
      "inputs": [
        {
          "internalType": "address",
          "name": "spender",
          "type": "address"
        },
        {
          "internalType": "uint256",
          "name": "subtractedValue",
          "type": "uint256"
        }
      ],
      "name": "decreaseAllowance",
      "outputs": [
        {
          "internalType": "bool",
          "name": "",
          "type": "bool"
        }
      ],
      "stateMutability": "nonpayable",
      "type": "function"
    },
    {
      "inputs": [
        {
          "internalType": "address",
          "name": "spender",
          "type": "address"
        },
        {
          "internalType": "uint256",
          "name": "addedValue",
          "type": "uint256"
        }
      ],
      "name": "increaseAllowance",
      "outputs": [
        {
          "internalType": "bool",
          "name": "",
          "type": "bool"
        }
      ],
      "stateMutability": "nonpayable",
      "type": "function"
    },
    {
      "inputs": [
        {
          "internalType": "address",
          "name": "to",
          "type": "address"
        },
        {
          "internalType": "uint256",
          "name": "amount",
          "type": "uint256"
        }
      ],
      "name": "mint",
      "outputs": [],
      "stateMutability": "nonpayable",
      "type": "function"
    },
    {
      "inputs": [],
      "name": "name",
      "outputs": [
        {
          "internalType": "string",
          "name": "",
          "type": "string"
        }
      ],
      "stateMutability": "view",
      "type": "function"
    },
    {
      "inputs": [],
      "name": "owner",
      "outputs": [
        {
          "internalType": "address",
          "name": "",
          "type": "address"
        }
      ],
      "stateMutability": "view",
      "type": "function"
    },
    {
      "inputs": [
        {
          "internalType": "uint256",
          "name": "_ID",
          "type": "uint256"
        }
      ],
      "name": "redeem",
      "outputs": [],
      "stateMutability": "nonpayable",
      "type": "function"
    },
    {
      "inputs": [],
      "name": "renounceOwnership",
      "outputs": [],
      "stateMutability": "nonpayable",
      "type": "function"
    },
    {
      "inputs": [],
      "name": "symbol",
      "outputs": [
        {
          "internalType": "string",
          "name": "",
          "type": "string"
        }
      ],
      "stateMutability": "view",
      "type": "function"
    },
    {
      "inputs": [],
      "name": "totalSupply",
      "outputs": [
        {
          "internalType": "uint256",
          "name": "",
          "type": "uint256"
        }
      ],
      "stateMutability": "view",
      "type": "function"
    },
    {
      "inputs": [
        {
          "internalType": "address",
          "name": "to",
          "type": "address"
        },
        {
          "internalType": "uint256",
          "name": "amount",
          "type": "uint256"
        }
      ],
      "name": "transfer",
      "outputs": [
        {
          "internalType": "bool",
          "name": "",
          "type": "bool"
        }
      ],
      "stateMutability": "nonpayable",
      "type": "function"
    },
    {
      "inputs": [
        {
          "internalType": "address",
          "name": "from",
          "type": "address"
        },
        {
          "internalType": "address",
          "name": "to",
          "type": "address"
        },
        {
          "internalType": "uint256",
          "name": "amount",
          "type": "uint256"
        }
      ],
      "name": "transferFrom",
      "outputs": [
        {
          "internalType": "bool",
          "name": "",
          "type": "bool"
        }
      ],
      "stateMutability": "nonpayable",
      "type": "function"
    },
    {
      "inputs": [
        {
          "internalType": "address",
          "name": "newOwner",
          "type": "address"
        }
      ],
      "name": "transferOwnership",
      "outputs": [],
      "stateMutability": "nonpayable",
      "type": "function"
    }
  ],
  "bytecode": "0x60806040523480156200001157600080fd5b506040518060400160405280600581526020017f444547454e0000000000000000000000000000000000000000000000000000008152506040518060400160405280600381526020017f44474e000000000000000000000000000000000000000000000000000000000081525081600390816200008f919062000412565b508060049081620000a1919062000412565b505050620000c4620000b8620000ca60201b60201c565b620000d260201b60201c565b620004f9565b600033905090565b6000600560009054906101000a900473ffffffffffffffffffffffffffffffffffffffff16905081600560006101000a81548173ffffffffffffffffffffffffffffffffffffffff021916908373ffffffffffffffffffffffffffffffffffffffff1602179055508173ffffffffffffffffffffffffffffffffffffffff168173ffffffffffffffffffffffffffffffffffffffff167f8be0079c531659141344cd1fd0a4f28419497f9722a3daafe3b4186f6b6457e060405160405180910390a35050565b600081519050919050565b7f4e487b7100000000000000000000000000000000000000000000000000000000600052604160045260246000fd5b7f4e487b7100000000000000000000000000000000000000000000000000000000600052602260045260246000fd5b600060028204905060018216806200021a57607f821691505b60208210810362000230576200022f620001d2565b5b50919050565b60008190508160005260206000209050919050565b60006020601f8301049050919050565b600082821b905092915050565b6000600883026200029a7fffffffffffffffffffffffffffffffffffffffffffffffffffffffffffffffff826200025b565b620002a686836200025b565b95508019841693508086168417925050509392505050565b6000819050919050565b6000819050919050565b6000620002f3620002ed620002e784620002be565b620002c8565b620002be565b9050919050565b6000819050919050565b6200030f83620002d2565b620003276200031e82620002fa565b84845462000268565b825550505050565b600090565b6200033e6200032f565b6200034b81848462000304565b505050565b5b8181101562000373576200036760008262000334565b60018101905062000351565b5050565b601f821115620003c2576200038c8162000236565b62000397846200024b565b81016020851015620003a7578190505b620003bf620003b6856200024b565b83018262000350565b50505b505050565b600082821c905092915050565b6000620003e760001984600802620003c7565b1980831691505092915050565b6000620004028383620003d4565b9150826002028217905092915050565b6200041d8262000198565b67ffffffffffffffff811115620004395762000438620001a3565b5b62000445825462000201565b6200045282828562000377565b600060209050601f8311600181146200048a576000841562000475578287015190505b620004818582620003f4565b865550620004f1565b601f1984166200049a8662000236565b60005b82811015620004c4578489015182556001820191506020850194506020810190506200049d565b86831015620004e45784890151620004e0601f891682620003d4565b8355505b6001600288020188555050505b505050505050565b61246880620005096000396000f3fe608060405234801561001057600080fd5b506004361061012c5760003560e01c8063715018a6116100ad578063a9059cbb11610071578063a9059cbb14610347578063d15b6a8c14610377578063db006a7514610393578063dd62ed3e146103af578063f2fde38b146103df5761012c565b8063715018a6146102b557806379cc6790146102bf5780638da5cb5b146102db57806395d89b41146102f9578063a457c2d7146103175761012c565b806339509351116100f457806339509351146101eb57806340c10f191461021b57806342966c68146102375780634ea62f481461025357806370a08231146102855761012c565b806306fdde0314610131578063095ea7b31461014f57806318160ddd1461017f57806323b872dd1461019d578063313ce567146101cd575b600080fd5b6101396103fb565b604051610146919061152c565b60405180910390f35b610169600480360381019061016491906115f6565b61048d565b6040516101769190611651565b60405180910390f35b6101876104b0565b604051610194919061167b565b60405180910390f35b6101b760048036038101906101b29190611696565b6104ba565b6040516101c49190611651565b60405180910390f35b6101d56104e9565b6040516101e29190611705565b60405180910390f35b610205600480360381019061020091906115f6565b6104f2565b6040516102129190611651565b60405180910390f35b610235600480360381019061023091906115f6565b610529565b005b610251600480360381019061024c9190611720565b61053f565b005b61026d60048036038101906102689190611720565b610553565b60405161027c9392919061174d565b60405180910390f35b61029f600480360381019061029a919061178b565b610605565b6040516102ac919061167b565b60405180910390f35b6102bd61064d565b005b6102d960048036038101906102d491906115f6565b610661565b005b6102e3610681565b6040516102f091906117c7565b60405180910390f35b6103016106ab565b60405161030e919061152c565b60405180910390f35b610331600480360381019061032c91906115f6565b61073d565b60405161033e9190611651565b60405180910390f35b610361600480360381019061035c91906115f6565b6107b4565b60405161036e9190611651565b60405180910390f35b610391600480360381019061038c9190611917565b6107d7565b005b6103ad60048036038101906103a89190611720565b610862565b005b6103c960048036038101906103c49190611973565b610a4e565b6040516103d6919061167b565b60405180910390f35b6103f960048036038101906103f4919061178b565b610ad5565b005b60606003805461040a906119e2565b80601f0160208091040260200160405190810160405280929190818152602001828054610436906119e2565b80156104835780601f1061045857610100808354040283529160200191610483565b820191906000526020600020905b81548152906001019060200180831161046657829003601f168201915b5050505050905090565b600080610498610b58565b90506104a5818585610b60565b600191505092915050565b6000600254905090565b6000806104c5610b58565b90506104d2858285610d29565b6104dd858585610db5565b60019150509392505050565b60006012905090565b6000806104fd610b58565b905061051e81858561050f8589610a4e565b6105199190611a42565b610b60565b600191505092915050565b61053161102b565b61053b82826110a9565b5050565b61055061054a610b58565b826111ff565b50565b600660205280600052604060002060009150905080600001549080600101805461057c906119e2565b80601f01602080910402602001604051908101604052809291908181526020018280546105a8906119e2565b80156105f55780601f106105ca576101008083540402835291602001916105f5565b820191906000526020600020905b8154815290600101906020018083116105d857829003601f168201915b5050505050908060020154905083565b60008060008373ffffffffffffffffffffffffffffffffffffffff1673ffffffffffffffffffffffffffffffffffffffff168152602001908152602001600020549050919050565b61065561102b565b61065f60006113cc565b565b6106738261066d610b58565b83610d29565b61067d82826111ff565b5050565b6000600560009054906101000a900473ffffffffffffffffffffffffffffffffffffffff16905090565b6060600480546106ba906119e2565b80601f01602080910402602001604051908101604052809291908181526020018280546106e6906119e2565b80156107335780601f1061070857610100808354040283529160200191610733565b820191906000526020600020905b81548152906001019060200180831161071657829003601f168201915b5050505050905090565b600080610748610b58565b905060006107568286610a4e565b90508381101561079b576040517f08c379a000000000000000000000000000000000000000000000000000000000815260040161079290611ae8565b60405180910390fd5b6107a88286868403610b60565b60019250505092915050565b6000806107bf610b58565b90506107cc818585610db5565b600191505092915050565b6107df61102b565b6001600760008282546107f29190611a42565b925050819055506000604051806060016040528060075481526020018481526020018381525090508060066000600754815260200190815260200160002060008201518160000155602082015181600101908161084f9190611cb4565b5060408201518160020155905050505050565b60008111801561087457506007548111155b6108b3576040517f08c379a00000000000000000000000000000000000000000000000000000000081526004016108aa90611dd2565b60405180910390fd5b600060066000838152602001908152602001600020604051806060016040529081600082015481526020016001820180546108ed906119e2565b80601f0160208091040260200160405190810160405280929190818152602001828054610919906119e2565b80156109665780601f1061093b57610100808354040283529160200191610966565b820191906000526020600020905b81548152906001019060200180831161094957829003601f168201915b505050505081526020016002820154815250509050806040015161098933610605565b10156109ca576040517f08c379a00000000000000000000000000000000000000000000000000000000081526004016109c190611e3e565b60405180910390fd5b6109e0336109d6610681565b8360400151610db5565b600073ffffffffffffffffffffffffffffffffffffffff163373ffffffffffffffffffffffffffffffffffffffff167fddf252ad1be2c89b69c2b068fc378daa952ba7f163c4a11628f55a4df523b3ef8360400151604051610a42919061167b565b60405180910390a35050565b6000600160008473ffffffffffffffffffffffffffffffffffffffff1673ffffffffffffffffffffffffffffffffffffffff16815260200190815260200160002060008373ffffffffffffffffffffffffffffffffffffffff1673ffffffffffffffffffffffffffffffffffffffff16815260200190815260200160002054905092915050565b610add61102b565b600073ffffffffffffffffffffffffffffffffffffffff168173ffffffffffffffffffffffffffffffffffffffff1603610b4c576040517f08c379a0000000000000000000000000000000000000000000000000000000008152600401610b4390611ed0565b60405180910390fd5b610b55816113cc565b50565b600033905090565b600073ffffffffffffffffffffffffffffffffffffffff168373ffffffffffffffffffffffffffffffffffffffff1603610bcf576040517f08c379a0000000000000000000000000000000000000000000000000000000008152600401610bc690611f62565b60405180910390fd5b600073ffffffffffffffffffffffffffffffffffffffff168273ffffffffffffffffffffffffffffffffffffffff1603610c3e576040517f08c379a0000000000000000000000000000000000000000000000000000000008152600401610c3590611ff4565b60405180910390fd5b80600160008573ffffffffffffffffffffffffffffffffffffffff1673ffffffffffffffffffffffffffffffffffffffff16815260200190815260200160002060008473ffffffffffffffffffffffffffffffffffffffff1673ffffffffffffffffffffffffffffffffffffffff168152602001908152602001600020819055508173ffffffffffffffffffffffffffffffffffffffff168373ffffffffffffffffffffffffffffffffffffffff167f8c5be1e5ebec7d5bd14f71427d1e84f3dd0314c0f7b2291e5b200ac8c7c3b92583604051610d1c919061167b565b60405180910390a3505050565b6000610d358484610a4e565b90507fffffffffffffffffffffffffffffffffffffffffffffffffffffffffffffffff8114610daf5781811015610da1576040517f08c379a0000000000000000000000000000000000000000000000000000000008152600401610d9890612060565b60405180910390fd5b610dae8484848403610b60565b5b50505050565b600073ffffffffffffffffffffffffffffffffffffffff168373ffffffffffffffffffffffffffffffffffffffff1603610e24576040517f08c379a0000000000000000000000000000000000000000000000000000000008152600401610e1b906120f2565b60405180910390fd5b600073ffffffffffffffffffffffffffffffffffffffff168273ffffffffffffffffffffffffffffffffffffffff1603610e93576040517f08c379a0000000000000000000000000000000000000000000000000000000008152600401610e8a90612184565b60405180910390fd5b610e9e838383611492565b60008060008573ffffffffffffffffffffffffffffffffffffffff1673ffffffffffffffffffffffffffffffffffffffff16815260200190815260200160002054905081811015610f24576040517f08c379a0000000000000000000000000000000000000000000000000000000008152600401610f1b90612216565b60405180910390fd5b8181036000808673ffffffffffffffffffffffffffffffffffffffff1673ffffffffffffffffffffffffffffffffffffffff16815260200190815260200160002081905550816000808573ffffffffffffffffffffffffffffffffffffffff1673ffffffffffffffffffffffffffffffffffffffff168152602001908152602001600020600082825401925050819055508273ffffffffffffffffffffffffffffffffffffffff168473ffffffffffffffffffffffffffffffffffffffff167fddf252ad1be2c89b69c2b068fc378daa952ba7f163c4a11628f55a4df523b3ef84604051611012919061167b565b60405180910390a3611025848484611497565b50505050565b611033610b58565b73ffffffffffffffffffffffffffffffffffffffff16611051610681565b73ffffffffffffffffffffffffffffffffffffffff16146110a7576040517f08c379a000000000000000000000000000000000000000000000000000000000815260040161109e90612282565b60405180910390fd5b565b600073ffffffffffffffffffffffffffffffffffffffff168273ffffffffffffffffffffffffffffffffffffffff1603611118576040517f08c379a000000000000000000000000000000000000000000000000000000000815260040161110f906122ee565b60405180910390fd5b61112460008383611492565b80600260008282546111369190611a42565b92505081905550806000808473ffffffffffffffffffffffffffffffffffffffff1673ffffffffffffffffffffffffffffffffffffffff168152602001908152602001600020600082825401925050819055508173ffffffffffffffffffffffffffffffffffffffff16600073ffffffffffffffffffffffffffffffffffffffff167fddf252ad1be2c89b69c2b068fc378daa952ba7f163c4a11628f55a4df523b3ef836040516111e7919061167b565b60405180910390a36111fb60008383611497565b5050565b600073ffffffffffffffffffffffffffffffffffffffff168273ffffffffffffffffffffffffffffffffffffffff160361126e576040517f08c379a000000000000000000000000000000000000000000000000000000000815260040161126590612380565b60405180910390fd5b61127a82600083611492565b60008060008473ffffffffffffffffffffffffffffffffffffffff1673ffffffffffffffffffffffffffffffffffffffff16815260200190815260200160002054905081811015611300576040517f08c379a00000000000000000000000000000000000000000000000000000000081526004016112f790612412565b60405180910390fd5b8181036000808573ffffffffffffffffffffffffffffffffffffffff1673ffffffffffffffffffffffffffffffffffffffff1681526020019081526020016000208190555081600260008282540392505081905550600073ffffffffffffffffffffffffffffffffffffffff168373ffffffffffffffffffffffffffffffffffffffff167fddf252ad1be2c89b69c2b068fc378daa952ba7f163c4a11628f55a4df523b3ef846040516113b3919061167b565b60405180910390a36113c783600084611497565b505050565b6000600560009054906101000a900473ffffffffffffffffffffffffffffffffffffffff16905081600560006101000a81548173ffffffffffffffffffffffffffffffffffffffff021916908373ffffffffffffffffffffffffffffffffffffffff1602179055508173ffffffffffffffffffffffffffffffffffffffff168173ffffffffffffffffffffffffffffffffffffffff167f8be0079c531659141344cd1fd0a4f28419497f9722a3daafe3b4186f6b6457e060405160405180910390a35050565b505050565b505050565b600081519050919050565b600082825260208201905092915050565b60005b838110156114d65780820151818401526020810190506114bb565b60008484015250505050565b6000601f19601f8301169050919050565b60006114fe8261149c565b61150881856114a7565b93506115188185602086016114b8565b611521816114e2565b840191505092915050565b6000602082019050818103600083015261154681846114f3565b905092915050565b6000604051905090565b600080fd5b600080fd5b600073ffffffffffffffffffffffffffffffffffffffff82169050919050565b600061158d82611562565b9050919050565b61159d81611582565b81146115a857600080fd5b50565b6000813590506115ba81611594565b92915050565b6000819050919050565b6115d3816115c0565b81146115de57600080fd5b50565b6000813590506115f0816115ca565b92915050565b6000806040838503121561160d5761160c611558565b5b600061161b858286016115ab565b925050602061162c858286016115e1565b9150509250929050565b60008115159050919050565b61164b81611636565b82525050565b60006020820190506116666000830184611642565b92915050565b611675816115c0565b82525050565b6000602082019050611690600083018461166c565b92915050565b6000806000606084860312156116af576116ae611558565b5b60006116bd868287016115ab565b93505060206116ce868287016115ab565b92505060406116df868287016115e1565b9150509250925092565b600060ff82169050919050565b6116ff816116e9565b82525050565b600060208201905061171a60008301846116f6565b92915050565b60006020828403121561173657611735611558565b5b6000611744848285016115e1565b91505092915050565b6000606082019050611762600083018661166c565b818103602083015261177481856114f3565b9050611783604083018461166c565b949350505050565b6000602082840312156117a1576117a0611558565b5b60006117af848285016115ab565b91505092915050565b6117c181611582565b82525050565b60006020820190506117dc60008301846117b8565b92915050565b600080fd5b600080fd5b7f4e487b7100000000000000000000000000000000000000000000000000000000600052604160045260246000fd5b611824826114e2565b810181811067ffffffffffffffff82111715611843576118426117ec565b5b80604052505050565b600061185661154e565b9050611862828261181b565b919050565b600067ffffffffffffffff821115611882576118816117ec565b5b61188b826114e2565b9050602081019050919050565b82818337600083830152505050565b60006118ba6118b584611867565b61184c565b9050828152602081018484840111156118d6576118d56117e7565b5b6118e1848285611898565b509392505050565b600082601f8301126118fe576118fd6117e2565b5b813561190e8482602086016118a7565b91505092915050565b6000806040838503121561192e5761192d611558565b5b600083013567ffffffffffffffff81111561194c5761194b61155d565b5b611958858286016118e9565b9250506020611969858286016115e1565b9150509250929050565b6000806040838503121561198a57611989611558565b5b6000611998858286016115ab565b92505060206119a9858286016115ab565b9150509250929050565b7f4e487b7100000000000000000000000000000000000000000000000000000000600052602260045260246000fd5b600060028204905060018216806119fa57607f821691505b602082108103611a0d57611a0c6119b3565b5b50919050565b7f4e487b7100000000000000000000000000000000000000000000000000000000600052601160045260246000fd5b6000611a4d826115c0565b9150611a58836115c0565b9250828201905080821115611a7057611a6f611a13565b5b92915050565b7f45524332303a2064656372656173656420616c6c6f77616e63652062656c6f7760008201527f207a65726f000000000000000000000000000000000000000000000000000000602082015250565b6000611ad26025836114a7565b9150611add82611a76565b604082019050919050565b60006020820190508181036000830152611b0181611ac5565b9050919050565b60008190508160005260206000209050919050565b60006020601f8301049050919050565b600082821b905092915050565b600060088302611b6a7fffffffffffffffffffffffffffffffffffffffffffffffffffffffffffffffff82611b2d565b611b748683611b2d565b95508019841693508086168417925050509392505050565b6000819050919050565b6000611bb1611bac611ba7846115c0565b611b8c565b6115c0565b9050919050565b6000819050919050565b611bcb83611b96565b611bdf611bd782611bb8565b848454611b3a565b825550505050565b600090565b611bf4611be7565b611bff818484611bc2565b505050565b5b81811015611c2357611c18600082611bec565b600181019050611c05565b5050565b601f821115611c6857611c3981611b08565b611c4284611b1d565b81016020851015611c51578190505b611c65611c5d85611b1d565b830182611c04565b50505b505050565b600082821c905092915050565b6000611c8b60001984600802611c6d565b1980831691505092915050565b6000611ca48383611c7a565b9150826002028217905092915050565b611cbd8261149c565b67ffffffffffffffff811115611cd657611cd56117ec565b5b611ce082546119e2565b611ceb828285611c27565b600060209050601f831160018114611d1e5760008415611d0c578287015190505b611d168582611c98565b865550611d7e565b601f198416611d2c86611b08565b60005b82811015611d5457848901518255600182019150602085019450602081019050611d2f565b86831015611d715784890151611d6d601f891682611c7a565b8355505b6001600288020188555050505b505050505050565b7f506c6561736520656e7465722076616c69642049440000000000000000000000600082015250565b6000611dbc6015836114a7565b9150611dc782611d86565b602082019050919050565b60006020820190508181036000830152611deb81611daf565b9050919050565b7f4e6f7420456e6f7567682042616c616e63650000000000000000000000000000600082015250565b6000611e286012836114a7565b9150611e3382611df2565b602082019050919050565b60006020820190508181036000830152611e5781611e1b565b9050919050565b7f4f776e61626c653a206e6577206f776e657220697320746865207a65726f206160008201527f6464726573730000000000000000000000000000000000000000000000000000602082015250565b6000611eba6026836114a7565b9150611ec582611e5e565b604082019050919050565b60006020820190508181036000830152611ee981611ead565b9050919050565b7f45524332303a20617070726f76652066726f6d20746865207a65726f2061646460008201527f7265737300000000000000000000000000000000000000000000000000000000602082015250565b6000611f4c6024836114a7565b9150611f5782611ef0565b604082019050919050565b60006020820190508181036000830152611f7b81611f3f565b9050919050565b7f45524332303a20617070726f766520746f20746865207a65726f20616464726560008201527f7373000000000000000000000000000000000000000000000000000000000000602082015250565b6000611fde6022836114a7565b9150611fe982611f82565b604082019050919050565b6000602082019050818103600083015261200d81611fd1565b9050919050565b7f45524332303a20696e73756666696369656e7420616c6c6f77616e6365000000600082015250565b600061204a601d836114a7565b915061205582612014565b602082019050919050565b600060208201905081810360008301526120798161203d565b9050919050565b7f45524332303a207472616e736665722066726f6d20746865207a65726f20616460008201527f6472657373000000000000000000000000000000000000000000000000000000602082015250565b60006120dc6025836114a7565b91506120e782612080565b604082019050919050565b6000602082019050818103600083015261210b816120cf565b9050919050565b7f45524332303a207472616e7366657220746f20746865207a65726f206164647260008201527f6573730000000000000000000000000000000000000000000000000000000000602082015250565b600061216e6023836114a7565b915061217982612112565b604082019050919050565b6000602082019050818103600083015261219d81612161565b9050919050565b7f45524332303a207472616e7366657220616d6f756e742065786365656473206260008201527f616c616e63650000000000000000000000000000000000000000000000000000602082015250565b60006122006026836114a7565b915061220b826121a4565b604082019050919050565b6000602082019050818103600083015261222f816121f3565b9050919050565b7f4f776e61626c653a2063616c6c6572206973206e6f7420746865206f776e6572600082015250565b600061226c6020836114a7565b915061227782612236565b602082019050919050565b6000602082019050818103600083015261229b8161225f565b9050919050565b7f45524332303a206d696e7420746f20746865207a65726f206164647265737300600082015250565b60006122d8601f836114a7565b91506122e3826122a2565b602082019050919050565b60006020820190508181036000830152612307816122cb565b9050919050565b7f45524332303a206275726e2066726f6d20746865207a65726f2061646472657360008201527f7300000000000000000000000000000000000000000000000000000000000000602082015250565b600061236a6021836114a7565b91506123758261230e565b604082019050919050565b600060208201905081810360008301526123998161235d565b9050919050565b7f45524332303a206275726e20616d6f756e7420657863656564732062616c616e60008201527f6365000000000000000000000000000000000000000000000000000000000000602082015250565b60006123fc6022836114a7565b9150612407826123a0565b604082019050919050565b6000602082019050818103600083015261242b816123ef565b905091905056fea2646970667358221220c662ac514f4d984bb1fdd5b368b05fb8dc4c517a67554039bc66e8612a9058c764736f6c63430008120033",
  "linkReferences": {},
  "deployedLinkReferences": {}
}